:020000023000CC
:10E000000D94B3F10D94DCF10D94DCF10D94DCF181
:10E010000D94DCF10D94DCF10D94DCF10D94DCF148
:10E020000D94DCF10D94DCF10D94DCF10D94DCF138
:10E030000D94DCF10D94DCF10D94DCF10D94DCF128
:10E040000D94DCF10D94DCF10D94DCF10D94DCF118
:10E050000D94DCF10D94DCF10D94DCF10D94DCF108
:10E060000D94DCF10D94DCF10D94DCF10D94DCF1F8
:10E070000D94DCF10D94DCF10D94DCF10D94DCF1E8
:10E080000D94DCF10D94DCF10D94DCF10D94DCF1D8
:10E090000D94DCF10D94DCF10D94DCF10D94DCF1C8
:10E0A0000D94DCF10D94DCF10D94DCF10D94DCF1B8
:10E0B0000D94DCF10D94DCF10D94DCF10D94DCF1A8
:10E0C0000D94DCF10D94DCF10D94DCF10D94DCF198
:10E0D0000D94DCF10D94DCF10D94DCF10D94DCF188
:10E0E0000D94DCF10D94DCF10D94DCF10D94DCF178
:10E0F0000D94DCF10D94DCF10D94DCF10D94DCF168
:10E100000D94DCF10D94DCF10D94DCF10D94DCF157
:10E110000D94DCF10D94DCF10D94DCF10D94DCF147
:10E120000D94DCF10D94DCF10D94DCF10D94DCF137
:10E130000D94DCF12A00593D506F727420626C69B5
:10E140006E6B00563D73686F7720696E74657272EE
:10E1500075707420566563746F727300523D447518
:10E160006D702052414D00513D51756974004C3D18
:10E170004C69737420492F4F20506F72747300489C
:10E180003D48656C7000463D44756D7020464C41BD
:10E19000534800453D44756D7020454550524F4DE4
:10E1A00000423D426C696E6B204C454400403D4549
:10E1B0004550524F4D2074657374003F3D43505598
:10E1C00020737461747300303D5A65726F2061640E
:10E1D000647200504F5254004545206572722063AE
:10E1E0006E743D0052656164696E67204545005755
:10E1F00072697474696E672045450020004D75731F
:10E20000742062652061206C657474657200506FC3
:10E210007274206E6F7420737570706F72746564A1
:10E22000005768617420706F72743A006A6D7020D4
:10E2300000726A6D702020006E6F20766563746FC7
:10E2400072005623202020414444522020206F7029
:10E2500020636F64652020202020696E73747275BE
:10E260006374696F6E2061646472202020496E744B
:10E2700065727275707400342E372E3200312E386C
:10E280002E30005365702020372032303133004C5F
:10E290006F636B20667573652020203D20004578F4
:10E2A000742066757365202020203D200048696732
:10E2B0006820667573652020203D20004C6F772014
:10E2C00066757365202020203D200043505520496D
:10E2D000442020202020203D200047434320566535
:10E2E0007273696F6E203D2000415652204C696266
:10E2F00043205665723D20005F5F4156525F415298
:10E3000043485F5F3D20004350552054797065209D
:10E310002020203D2000436F6D70696C6564206F84
:10E320006E203D20004875683F00426F6F746C6F2F
:10E33000616465723E0041726475696E6F20657834
:10E34000706C6F7265722073746B3530305632208A
:10E350006279204D4C530041546D6567613235360A
:10E3600072667232000011241FBECFEFD1E8DEBF0B
:10E37000CDBF01E00CBF12E0A0E0B2E0EEE2F8EFAA
:10E3800003E00BBF02C007900D92A430B107D9F78C
:10E3900022E0A4E0B2E001C01D92A231B207E1F791
:10E3A0000F9437F30D9415FC01E80EBF0FEF0DBF6E
:10E3B00011241FBE0D9437F30D9400F08093CE000E
:10E3C0008091C80086FFFCCF8091C8008064809354
:10E3D000C800089520E030E008C0EFECF7E0319786
:10E3E000F1F700C000002F5F3F4F28173907A9F74A
:10E3F0000895CF93DF93EC01C60FD11DAE0160E00D
:10E4000070E06BBFFA018791882321F021960F9469
:10E41000DEF1F4CFDF91CF9108958DE00F94DEF11E
:10E420008AE00D94DEF10F94F9F10D940DF2CF9383
:10E43000DF93EC018991882319F00F94DEF1FACF74
:10E44000DF91CF910895CF93C82F82958F70982F29
:10E45000905D9A3308F0995F892F0F94DEF1CF70A9
:10E460008C2F805D8A3308F0895FCF910D94DEF1A7
:10E470000F931F93CF93DF93EC018B0185369105AA
:10E480001CF4633071054CF0CE0164E670E00F942B
:10E49000B5FB862F805D0F94DEF1CB30D1051CF4E7
:10E4A000023011056CF0CE0164E670E00F94B5FB0C
:10E4B0006AE070E00F94B5FB862F805D0F94DEF16B
:10E4C000CE016AE070E00F94B5FB805DDF91CF91E3
:10E4D0001F910F910D94DEF18091C80087FFFCCF52
:10E4E0008091CE000895CF93C82F60E083ED91EE28
:10E4F0000F94F9F18C2F0F94DEF1CF910D940DF262
:10E500004F925F926F927F92AF92BF92CF92DF92C3
:10E51000EF92FF920F931F93CF93DF93CDB7DEB7A8
:10E5200066970FB6F894DEBF0FBECDBFC82E80E150
:10E53000D82EA12C7E0181E1E80EF11C9EE2B92EBD
:10E5400041305105E1E06E07710558F0862F4B8B85
:10E550005C8B6D8B7E8B0F9423F27E896D895C8939
:10E560004B89852F4B8B5C8B6D8B7E8B0F9423F2AD
:10E570004B89842F0F9423F280E20F94DEF18DE219
:10E580000F94DEF180E20F94DEF119828E010F5FAD
:10E590001F4F4B895C896D897E892A013B01F1E01F
:10E5A000CF1651F0CF1620F082E0C81214C011C06F
:10E5B0006BBEF201A7900FC0C2014B8B5C8B6D8BC1
:10E5C0007E8B0F94FFFBA82E4B895C896D897E8919
:10E5D00002C0F201A0808A2D4B8B5C8B6D8B7E8BF1
:10E5E0000F9423F280E20F94DEF18A2D80524B8942
:10E5F0005C896D897E89F8018F3510F4A08201C095
:10E60000B082FFEF4F1A5F0A6F0A7F0A0F5F1F4F3A
:10E610000E151F0509F0C3CF405F5F4F6F4F7F4F4F
:10E62000198ACE0101964B8B5C8B6D8B7E8B0F9480
:10E6300017F20F940DF2DA944B895C896D897E890B
:10E64000D1107ECF66960FB6F894DEBF0FBECDBF59
:10E65000DF91CF911F910F91FF90EF90DF90CF90BE
:10E66000BF90AF907F906F905F904F900895CF9341
:10E67000DF93CDB7DEB7CA53D1400FB6F894DEBFF3
:10E680000FBECDBF01E80EBF0FEF0DBF94B7F894DA
:10E69000A89514BE809160008861809360001092FC
:10E6A0006000789493FF05C0E0910402F0910502A8
:10E6B0001995509A589A8091C80082608093C8003A
:10E6C00087E08093CC0088E18093C9008091C800E6
:10E6D00082608093C8008091C90088618093C900DE
:10E6E0008091CA0086608093CA001092CD0080E1BC
:10E6F0008093CC00000083E70F94DEF184E70F9451
:10E70000DEF18BE60F94DEF186E70F94DEF182E313
:10E710000F94DEF18DE00F94DEF18AE00F94DEF1CC
:10E7200084E690E00F94EAF1C12CD12C760127EC1D
:10E73000822E2BE1922EA12CB12C7724739430C021
:10E7400025E02A95F1F700003FEFC31AD30AE30A48
:10E75000F30A01E010E041E9C4164FE5D40641E0B8
:10E76000E406F10410F400E010E0C701B601A501D1
:10E7700094010F94C9FB672B682B692B31F482E657
:10E780000F94DEF18BB187258BB98091C80087FD8E
:10E7900003C001151105A1F2A8014F5F5F4F19F4E5
:10E7A00000E010E0F2CF4130510511F00D9489FBEB
:10E7B00083C740E050E041305105B9F41DC04F5FC0
:10E7C0005F4F6F4F7F4F413092E159079AE76907DA
:10E7D000710570F0C85CDE4FA881B981C853D14083
:10E7E000119619F0EE27FF27099440E050E0BA0196
:10E7F0009091C80097FFE3CF9091CE00C55DDE4FAA
:10E8000048815981CB52D1404F5F5F4FC55DDE4F8C
:10E8100059834883CB52D140913209F0CEC44A305B
:10E82000510508F0CAC45FEF651A750A63E0661601
:10E83000710409F0C4C40DC081E20F94DEF171E0EF
:10E84000A71AB108C9F70F940DF20150110919F474
:10E8500006C005E010E099E1A92EB12CEDCF109291
:10E860000E0210920F0210921002109211021092DA
:10E870000A0210920B0210920C0210920D021092DA
:10E88000060210920702109208021092090260E03C
:10E8900086E393EE0F9413F21FEF60E08AE293EEAB
:10E8A0000F94F9F10F946CF2082F803608F00F7571
:10E8B000003230F0802F0F94DEF180E20F94DEF111
:10E8C000083409F4ACC1A8F4023409F441C150F48D
:10E8D000003309F108F46BC40F3399F1003409F0E7
:10E8E00066C4B8C0053409F44CC1063409F05FC4ED
:10E8F00072C1023509F4F8C138F40C3409F4CFC1FF
:10E90000013509F054C4E6C1063509F411C20935D0
:10E9100009F04DC4B0C362E087EC91EE0F9413F29E
:10E9200010920A0210920B0210920C0210920D0229
:10E9300010920E0210920F02109210021092110209
:10E94000FEC062E08BEB91EE0F9413F260E086E381
:10E9500093EE0F9413F260E086E193EE0F94F9F1D9
:10E9600060E083E892EE0F9413F260E087E093EEAC
:10E970000F94F9F160E087E593EE0F9413F260E0F5
:10E9800088EF92EE0F94F9F186E30F94DEF10F9485
:10E990000DF260E08AED92EE0F94F9F160E087E706
:10E9A00092EE0F9413F260E089EE92EE0F94F9F17B
:10E9B00060E08DE792EE0F9413F260E08BEC92EE44
:10E9C0000F94F9F18EE10F9423F288EA0F9423F269
:10E9D00082E00F9423F20F940DF260E08CEB92EE44
:10E9E0000F94F9F129E0E0E0F0E0209357008491E2
:10E9F0000F9423F20F940DF260E08DEA92EE0F94E3
:10EA0000F9F129E0E3E0F0E02093570084910F94BE
:10EA100023F20F940DF260E08EE992EE0F94F9F17B
:10EA2000E2E0F0E039E03093570084910F9423F254
:10EA30000F940DF260E08FE892EE0F94F9F129E067
:10EA4000E1E0F0E02093570084910F9423F20F94BB
:10EA50000DF223CF62E08DEA91EE0F9413F260E0A5
:10EA60008FEE91EE0F9413F20F940DF2A12CB12CB6
:10EA700012C0602FC5010F9407FC011106C060E0B1
:10EA80008BEF91EE0F94F9F103C0802F0F94DEF11C
:10EA90003FEFA31AB30AC5018A5C9C41A0E0B0E035
:10EAA000ABBFFC0107910A3221F0A11442E0B40689
:10EAB00001F70F940DF20F940DF260E084EE91EEE9
:10EAC0000F9413F20F940DF2812C912CA12CB12CE8
:10EAD00016C0C5010F94FFFB782E811106C060E0BF
:10EAE0008BEF91EE0F94F9F102C00F94DEF17016E6
:10EAF00019F05FEF851A950A6FEFA61AB60AC501DD
:10EB00008A5C9C41A0E0B0E0ABBFFC0107910A32F7
:10EB100021F0A11472E0B706E1F60F940DF20F9404
:10EB20000DF260E088ED91EE0F94F9F161E070E094
:10EB3000C4010F9438F20F940DF20F940DF210925D
:10EB40000602109207021092080210920902A5CE46
:10EB500062E081EA91EE0F9413F2509A589A0AC03B
:10EB6000589884E690E00F94EAF1589A84E690E091
:10EB70000F94EAF18091C80087FFF2CF0F946CF2F6
:10EB80008CCE62E083E991EE0F9413F2409106027D
:10EB900050910702609108027091090281E00F9480
:10EBA00080F28091060290910702A0910802B09134
:10EBB00009029F5FAF4FBF4F8093060290930702F9
:10EBC000A0930802B093090281159042A105B105F6
:10EBD00008F463CEB4CF62E086E891EE0F9413F2AE
:10EBE00040910A0250910B0260910C0270910D024B
:10EBF00080E00F9480F280910A0290910B02A09124
:10EC00000C02B0910D029F5FAF4FBF4F80930A027D
:10EC100090930B02A0930C02B0930D023ECE62E0E3
:10EC20008FE791EE0F9413F260E087EC91EE0F9472
:10EC300013F260E08BEB91EE0F9413F260E08DEA3B
:10EC400091EE0F9413F260E081EA91EE0F9413F2CB
:10EC500060E083E991EE0F9413F260E086E891EEB4
:10EC60000F9413F260E08FE791EE0F9413F260E0DF
:10EC70008EE691EE0F9413F260E087E691EE0F942A
:10EC800013F260E08CE591EE0F9413F260E083E400
:10EC900091EE0F9413F260E086E391EE8BC262E096
:10ECA0008EE691EE0F9413F281E40F9473F282E4F6
:10ECB0000F9473F283E40F9473F284E40F9473F26D
:10ECC00085E40F9473F286E40F9473F287E40F9453
:10ECD00073F2E3CD62E087E691EE0F9413F2612CBC
:10ECE000712C55245394ACC262E08CE591EE0F94E4
:10ECF00013F240910E0250910F0260911002709138
:10ED0000110282E00F9480F280910E0290910F0226
:10ED1000A0911002B09111029F5FAF4FBF4F80933F
:10ED20000E0290930F02A0931002B0931102B5CD82
:10ED300062E083E491EE0F9413F260E087E593EED6
:10ED40000F9413F260E082E492EE0F9413F2CA5D26
:10ED5000DE4F19821882C652D140412C512C32010B
:10ED6000A30192015695479537952795C35DDE4FD0
:10ED7000288339834A835B83CD52D140CA5DDE4FFD
:10ED800048815981C652D1404F5F5F4FCA5DDE4F07
:10ED900059834883C652D14062E070E0CA010F94A3
:10EDA00038F280E20F94DEF18DE20F94DEF180E222
:10EDB0000F94DEF180E00F9423F2C35DDE4F888173
:10EDC000CD52D1400F9423F280E20F94DEF18DE317
:10EDD0000F94DEF180E20F94DEF16BBEF201079139
:10EDE000D301C2010196A11DB11DABBFFC0127914A
:10EDF000B3E08B2E912CA12CB12C840C951CA61C5D
:10EE0000B71CD301C2010296A11DB11DABBFFC010D
:10EE10005791C25EDE4F5883CE51D14064E0460E1A
:10EE2000511C611C711CABBEF4017791CF5CDE4FAD
:10EE30007883C153D140422F50E060E070E08824D5
:10EE4000942EA52EB62E800E911CA11CB11C822FD3
:10EE5000C65CDE4F2883CA53D1400F9423F280E270
:10EE60000F94DEF1802F0F9423F280E20F94DEF1F5
:10EE7000CF5CDE4F8881C153D1400F9423F280E2F2
:10EE80000F94DEF1C25EDE4F8881CE51D1400F94E7
:10EE900023F280E20F94DEF1C65CDE4F2881CA5374
:10EEA000D1408FEF88169806A104B10431F460E0D8
:10EEB00088E392EE0F94F9F1D1C0D501C4018827FF
:10EEC000907CAA27BB278115904CA105B10509F0BC
:10EED00040C0A50194013F7344275527C25EDE4F11
:10EEE000288339834A835B83CE51D14049015A013B
:10EEF000C35DDE4F488159816A817B81CD52D1400B
:10EF0000840E951EA61EB71E880C991CAA1CBB1C3D
:10EF100060E081E392EE0F94F9F1C15EDE4F8881EB
:10EF2000CF51D1400F9423F2C25EDE4F8881CE5183
:10EF3000D1400F9423F280E20F94DEF18EE30F9420
:10EF4000DEF18A2D0F9423F2892D0F9423F2882D60
:10EF500083C0B501A4014E705E7F662777274C30D1
:10EF600054496105710509F079C0CF5CDE4F988185
:10EF7000C153D140892E912CA12CB12CBA2CA92C93
:10EF8000982C8824C25EDE4F3881CE51D140830E4A
:10EF9000911CA11CB11C802F817090E0A0E0B0E01A
:10EFA000DC0199278827880E991EAA1EBB1E802F78
:10EFB000807F90E0A0E0B0E041E1880F991FAA1F98
:10EFC000BB1F4A95D1F7880E991EAA1EBB1E822F21
:10EFD000817090E0A0E0B0E055E1880F991FAA1F72
:10EFE000BB1F5A95D1F7880E991EAA1EBB1EB501EC
:10EFF000A401440F551F661F771FC25EDE4F488372
:10F0000059836A837B83CE51D14060E08CE292EEDB
:10F010000F94F9F18A2D0F9423F2892D0F9423F286
:10F02000882D0F9423F280E20F94DEF18EE30F948B
:10F03000DEF1C05EDE4F8881C052D1400F9423F2D2
:10F04000C15EDE4F8881CF51D1400F9423F2C25E62
:10F05000DE4F8881CE51D1400F9423F20F940DF2F0
:10F06000CA5DDE4F28813981C652D1402D34310529
:10F0700009F076CE12CC62E086E391EE0F9413F2A3
:10F0800060E081E292EE0F94F9F10F946CF2082F98
:10F090000F75802F0F94DEF10F940DF2802F8154A5
:10F0A0008A3108F080C00434F1F138F40234E9F018
:10F0B00058F5013409F073C009C0063409F451C091
:10F0C00008F440C0073409F06AC05AC011B907C03B
:10F0D00082B1809582B988EC90E00F94EAF180913A
:10F0E000C80087FFF5CF12B849CD14B907C085B164
:10F0F000809585B988EC90E00F94EAF18091C80082
:10F1000087FFF5CF15B83ACD17B907C088B18095FC
:10F1100088B988EC90E00F94EAF18091C80087FFED
:10F12000F5CF18B82BCD1AB907C08BB180958BB924
:10F1300088EC90E00F94EAF18091C80087FFF5CF4A
:10F140001BB81CCD1DB907C08EB180958EB988EC57
:10F1500090E00F94EAF18091C80087FFF5CF1EB8C8
:10F160000DCD10BB07C081B3809581BB88EC90E0CA
:10F170000F94EAF18091C80087FFF5CF11BAFECC59
:10F1800013BB07C084B3809584BB88EC90E00F94D8
:10F19000EAF18091C80087FFF5CF14BAEFCC60E0A8
:10F1A0008EE092EE07C060E08DEF91EE03C060E06C
:10F1B00085E293EE0F9413F270CB612C712C8330A7
:10F1C000E1F020F4813061F098F406C0853009F157
:10F1D000C0F0863089F52DC09B3109F0EACABAC269
:10F1E0009926C65DDE4F9883CA52D14082E0E1CABB
:10F1F000392F20E0992683E0DCCA292B992684E068
:10F20000D8CA9E3009F0ABC29926212C312C85E05A
:10F21000D0CAE1E0F0E0EC0FFD1FE20DF31D90839A
:10F220004FEF241A340A99262216330609F0C1CA70
:10F2300099C2991521F093C2873009F0BACA512CAE
:10F240002981233109F4DDC0B8F4263009F4C6C0A1
:10F2500050F4223009F4D3C0233009F464C02130C3
:10F2600009F0E0C14AC0213109F46AC008F0A9C020
:10F27000203109F0D7C1C3C0283109F47DC048F45A
:10F28000253109F4BEC008F470C1263109F0CAC1A5
:10F290006CC12A3109F464C008F482C02B3109F42E
:10F2A00052C02D3109F0BEC18D81803339F49F8168
:10F2B0009923A9F09130A9F4E8EA16C0982F907527
:10F2C00091F0803519F4E0E0F0E004C0883559F49D
:10F2D000E3E0F0E099E090935700E49105C0EEE19F
:10F2E00003C0E3E001C0E0E01A821B828C831D8230
:10F2F000EE831F8207E010E099C11A8288E08B83B9
:10F3000081E48C8386E58D8382E58E8389E48F8317
:10F3100083E5888780E589878FE58A8782E38B8705
:10F320000BE010E083C1EA81E059E33028F4F0E01B
:10F33000E050FE4F808101C080E01A828B833EC086
:10F34000552453945CC08D81882321F0813021F4B1
:10F3500088EA03C08EE101C083E01A828B8308C073
:10F360001A82E1E0F0E089E080935700E491EB83BA
:10F370001C8204E010E05AC18B81803549F48C81F5
:10F38000883019F4E2E0F0E005C0E0E0F0E002C00F
:10F39000E3E0F0E089E080935700E4911A82E7CF40
:10F3A0008D81836C99E0E1E0F0E0082E90935700A6
:10F3B000E89507B600FCFDCF1A821B8203E010E03F
:10F3C00035C180EC8A8302E010E0CE5DDE4F18820A
:10F3D00019821A821B82C252D14028C18A81CB80F5
:10F3E000D12CE12CF12C7601DD24CC24F82A8D815E
:10F3F000C82A8C81D82ACC0CDD1CEE1CFF1C1A827A
:10F4000013C15A81CD5CDE4F5883C353D140CE5CCB
:10F41000DE4F1882C253D1408B81CE5CDE4FA88074
:10F42000B980C253D140A82A233109F069C0CE5D0A
:10F43000DE4F288139814A815B81C252D14021153A
:10F4400060EC360763E046075105E8F483E0F90114
:10F4500040935B0080935700E89507B600FCFDCF12
:10F46000CE5DDE4F288139814A815B81C252D14015
:10F470003F5F4F4F5F4FCE5DDE4F288339834A8316
:10F480005B83C252D1408B85DE011D9697018601B8
:10F4900041E0FD0131975081CB5CDE4F5883C5536D
:10F4A000D140CC5CDE4F1882C453D140CC5CDE4FDF
:10F4B00068817981C453D140682BCB010C01F801DC
:10F4C00020935B0040935700E89511240E5F1F4F77
:10F4D0002F4F3F4F72E0A71AB10819F08C91129686
:10F4E000D8CF85E0F601E0925B0080935700E89565
:10F4F00007B600FCFDCF81E180935700E89531C04D
:10F50000A70196015695479537952795CA5DDE4F19
:10F51000288339834A835B83C652D14000E010E0E0
:10F520004E013BE0830E911C0FC0D4016D914D0143
:10F53000CA5DDE4F88819981C652D140800F911FEC
:10F540000F9407FC0F5F1F4F0A151B0571F720E092
:10F5500030E0000F111F221F331F0C0D1D1D2E1D2B
:10F560003F1D1A82680179015FC0BA81C95CDE4F14
:10F57000B883C753D140CA5CDE4F1882C653D1400E
:10F580008B81CA5CDE4FE881F981C653D140E82BFC
:10F59000CF018C010D5F1F4F1A822431C1F49E01EF
:10F5A0002C5F3F4FDE011396EBBEF601479156915B
:10F5B0004C93F90150831296F2E0CF0ED11CE11C5E
:10F5C000F11C02972E5F3F4F009771F729C09C01F5
:10F5D000B701A601FE01339641BD852E962EA72EBA
:10F5E000BB2482BC4F5F5F4F6F4F7F4FF89AA0B52F
:10F5F000A1932150310981F79C0121503109A901C2
:10F6000060E070E04F5F5F4F6F4F7F4FC40ED51EBD
:10F61000E61EF71EA3E0B0E0AC0FBD1FA80FB91F98
:10F620001C9204C080EC8A8302E010E08BE10F940E
:10F63000DEF1C65DDE4F8881CA52D1400F94DEF103
:10F64000812F0F94DEF1802F0F94DEF18EE00F9466
:10F65000DEF155E1952EC65DDE4F2881CA52D140BC
:10F6600092269026912641E050E04C0F5D1F040F3A
:10F67000151F5A0107C0D5018D905D01882D0F948B
:10F68000DEF19824A016B106B1F7892D0F94DEF1B2
:10F69000C65DDE4F2881CA52D1402F5FC65DDE4F66
:10F6A0002883CA52D1408BB191E089278BB940E0C1
:10F6B00050E0552049F12DC0C55DDE4F19821882FA
:10F6C000CB52D140612C712CC65DDE4F1882CA52DC
:10F6D000D140912C212C312CCE5DDE4F1882198225
:10F6E0001A821B82C252D140C12CD12C760160E01B
:10F6F00070E0CB018BBFFB0187919691C85CDE4F18
:10F7000099838883C853D14020E030E080E00D9495
:10F71000DBF38AE60F94DEF18DE00F94DEF18AE0F0
:10F720000F94DEF184E690E00F94EAF15098589837
:10F7300084E690E00F94EAF100008091C8008D7F8C
:10F740008093C80081E180935700E895EE27FF275A
:10F750000994FFCF4BE1942E81E00D94D9F380E022
:10F760000D94D9F386E00D94D9F397FB072E16F488
:10F77000009407D077FD09D00F94EBFB07FC05D070
:10F780003EF4909581959F4F0895709561957F4FB8
:10F790000895A1E21A2EAA1BBB1BFD010DC0AA1FD2
:10F7A000BB1FEE1FFF1FA217B307E407F50720F0EA
:10F7B000A21BB30BE40BF50B661F771F881F991F65
:10F7C0001A9469F760957095809590959B01AC01AE
:10F7D000BD01CF010895AA1BBB1B51E107C0AA1FA1
:10F7E000BB1FA617B70710F0A61BB70B881F991FE2
:10F7F0005A95A9F780959095BC01CD010895F99986
:10F80000FECF92BD81BDF89A992780B50895262F25
:10F81000F999FECF1FBA92BD81BD20BD0FB6F894F5
:0EF82000FA9AF99A0FBE01960895F894FFCF58
:04F82E000F020A00BB
:040000033000E000E9
:00000001FF
